:10000000CEC00000EAC00000E8C00000E6C000006A
:10001000E4C00000E2C00000E0C00000DEC000005C
:10002000DCC00000DAC000000FC70000D6C000002E
:10003000D4C00000D2C00000D0C00000CEC000007C
:10004000CCC00000CAC00000C8C00000C6C000008C
:10005000C4C00000C2C00000C0C00000BEC000009C
:10006000BCC00000BAC00000B8C00000B6C00000AC
:10007000B4C00000B2C00000B0C00000AEC00000BC
:10008000ACC00000AAC00000A8C00000A6C00000CC
:10009000A4C00000A2C000001B5B33316D44657634
:1000A00020456E756D204572726F720D0A202D2DE0
:1000B000204572726F7220436F64652025640D0ABB
:1000C000202D2D20537562204572726F7220436F70
:1000D00064652025640D0A202D2D20496E2053745F
:1000E0006174652025640D0A1B5B33376D001B5B53
:1000F00033316D486F7374204D6F646520457272A3
:100100006F720D0A202D2D204572726F7220436F81
:1001100064652025640D0A1B5B33376D000D0A44AE
:10012000657669636520556E6174746163686564A2
:100130002E0D0A004465766963652041747461631D
:100140006865642E0D0A004D494449204E6F746560
:10015000202573202D204368616E6E656C20256418
:100160002C2050697463682025642C2056656C6FC0
:10017000636974792025640D0A001B5B33366D4D6D
:1001800049444920486F73742044656D6F2072752F
:100190006E6E696E672E0D0A1B5B33376D0011247E
:1001A0001FBECFEFD0E2DEBFCDBF11E0A0E0B1E0D7
:1001B000EAE1F9E100E00BBF02C007900D92A23D19
:1001C000B107D9F721E0A2EDB1E001C01D92A63E32
:1001D000B207E1F7B6D00C94810C12CF9BB19F709F
:1001E000892B8BB9089584B7877F84BF0FB6F894A5
:1001F000A8958091600088618093600010926000F3
:100200000FBE80E890E00FB6F89480936100909361
:1002100061000FBE1092C80088E18093C90086E09B
:100220008093CA00539A5A9A83E390E09093CD004A
:100230008093CC00E0EEF1E089E091E0938382834B
:10024000918380838AB1806F8AB98BB18F708BB9AB
:100250006A98729A84B18F7184B98DB18F7C8DB98F
:1002600085B1806E85B98EB180638EB973C41F93DA
:10027000CF93DF9300D000D0CDB7DEB783B11CB1F0
:100280001095169518718095807E182B3091D201AB
:1002900031272CB120952470211129E0832F8074FF
:1002A000882319F080E816FD80E99CE337FF04C03D
:1002B0009DE380E817FD80E9532F5071432F407272
:1002C00033FF24C013FD09C0511122C09EE3442313
:1002D00021F19BE315FF21C005C0511119C09EE318
:1002E0004111F7CF80E9382F32953F703983282BA1
:1002F0002A839B8380E48C83BE016F5F7F4F80E005
:1003000091E09DD780E091E07ED711C0552359F050
:1003100014FD05C09FE34111DCCF80E8E4CF9FE3EB
:10032000442301F3D6CF4111D4CF8111DCCF1093F8
:10033000D2010F900F900F900F90DF91CF911F91EE
:100340000895CDB7DEB7C250D2400FB6F894DEBFE5
:100350000FBECDBF48DF8AE791E00E94C80980E167
:100360003DDF8CE0B82E07E411E093E3E92E91E045
:10037000F92E20E3C22E21E0D22E8091D6018B30BF
:1003800021F08C30B1F1E5D5F8CF80EA27DF20E00D
:1003900032E0AE014F5F5F4FBE016F5F7D4F81E086
:1003A000E6D5882341F087E391E0C6D780E916DFE0
:1003B0001092D601E8CFCF5FDD4F68817981C150BF
:1003C000D240AE014F5F5F4F80E091E087D6882337
:1003D00019F083E691E0E9CF81E038D2882319F063
:1003E00083E991E0E2CF88EB91E0A6D7B092D60105
:1003F000CACF3DDFBE016F5F7F4F80E091E047D7FE
:10040000882309F4C0CF89818F70282F30E089308C
:10041000D1F44C8150E02B8130E08A818F708F5F66
:1004200090E0B6015F934F933F932F939F938F93E9
:100430007F936F931F930F9359D70FB6F894DEBF36
:100440000FBECDBFA0CF2830310509F09CCF4C8125
:1004500050E02B8130E08A818F708F5F90E0B70190
:10046000E1CF84E391E094D780EAB8CE8DE191E0CA
:100470008FD780E1B3CE80E6B1CEC82F7ED31F9256
:10048000CF938EEE90E09F938F9330D780E9A6DED6
:100490000F900F900F900F90FFCF9091D6011F9269
:1004A0009F931F926F931F928F9388E990E09F9381
:1004B0008F931CD78DB79EB708960FB6F8949EBF42
:1004C0000FBE8DBF80E98ACE9091C80095FFFCCF0A
:1004D0008093CE0080E090E008958091C80087FF6F
:1004E00008C08091C80087FFFCCF8091CE0090E0CB
:1004F00008958EEF9FEF089580919E0081709091F6
:10050000A0009D7F9093A00090919E009260909398
:100510009E0090919E0091FDFCCF90919E00916075
:1005200090939E0090919F009F7D90939F009AE0F2
:1005300020919F0025FF17C090919F009F7D909371
:100540009F0090919F009D7F90939F00811105C017
:1005500080919E008E7F80939E008091A00082609B
:100560008093A0000895EFECF7E03197F1F700C019
:10057000000091509111DCCFE9CF90919E009170D5
:1005800020919E00216020939E008823C1F020913D
:100590009F0025FF06C020919F002F7D20939F0084
:1005A00081502091D6012230E9F02091A60024FF4D
:1005B0000EC08091A6008F7E8093A60082E09111EC
:1005C00005C090919E009E7F90939E00089520917B
:1005D000A60021FFDACF8091A6008D7F8093A60030
:1005E00083E0EDCF81E0EBCFEF92FF920F931F936B
:1005F000CF93DF93CDB7DEB728970FB6F894DEBF61
:100600000FBECDBF1091D601EFEFE10FEA30C0F57C
:10061000F0E0ED57F34F61C6E090D401F090D501C2
:10062000E114F10469F181E0A8DF682F8823E9F083
:100630008091D3018093D6018091D601823001F15F
:10064000812F2BDF8091DD0081608093DD000EDF44
:1006500028960FB6F894DEBF0FBECDBFDF91CF91C5
:100660001F910F91FF90EF902AC281E0E81AF108E4
:10067000F092D501E092D4018091D301EF28A1F04E
:1006800028960FB6F894DEBF0FBECDBFDF91CF9195
:100690001F910F91FF90EF9008958CED95E090934E
:1006A000D5018093D40184E08093D601E9CF809175
:1006B000D4019091D5019C01215031093093D5018D
:1006C0002093D401892B39F08FEC97E00197F1F753
:1006D00000C00000D5CF77988091D80080618093CA
:1006E000D8008091DD008B7F8093DD008091D70062
:1006F00080618093D7008091DD0082608093DD006F
:1007000085E0D2CF80919F0080FFBACF80919F007B
:100710008E7F80939F0080919F008D7F80939F00AC
:100720008091DF008D7F8093DF008091DE0082600A
:100730008093DE0080919E00816080939E006BD24A
:1007400081E08093D60184E690E09093D501809378
:10075000D40186E08093D30193CFCEDE81E08093F5
:10076000D60188EC90E09093D5018093D40187E086
:10077000F1CFE12C00E410E020E040E060E080E018
:100780000ED28091AC0087FF5CC088E08DCF88E0FE
:10079000E8E1F1E0A7EDB1E001900D928A95E1F773
:1007A000CE01019687D0682F81114EC08885809335
:1007B0001701A2DE81E08093D60188EC90E090934F
:1007C000D5018093D40189E0C5CF8091A9008E7FA7
:1007D0008093A9008091AB008D7F8093AB00FF24B4
:1007E000F394F092A8001092A8000091170110E075
:1007F000E12C20E040E060E080E0D1D18091AC00CD
:1008000087FF1FC088E0E0E2F1E0A7EDB1E00190D2
:100810000D928A95E1F780E090E04CD0682F81112D
:1008200013C0F092D60184E690E09093D5018093B6
:10083000D4018AE08FCF81E08093A1001CDE8BE0A1
:1008400033CF60E014E0F8CE13E0F6CEE7EDF1E050
:10085000108299E0918390E09383828315821482C1
:10086000178216821092A70080E090E023C00F93B9
:100870001F93CF93C82F09EE13E08091A600C111FA
:1008800007C083FF09C080E0CF911F910F910895A9
:10089000C13069F480FDF7CF81E06FDE8111F4CFC4
:1008A000015011090115110541F784E0EDCF82FFD8
:1008B000F3CFE9CFFF920F931F93CF93DF93EC0118
:1008C00080919E008170F82E0091DD011091DE0173
:1008D00080919E00816080939E0081E04EDE8111B8
:1008E00054C08091AA008F7C8093AA001092F500DA
:1008F0008091A9008F7B8093A90087ED91E0FC0196
:10090000019620812093AF0021E08F3D9207B9F737
:100910008091A600982F977F9093A6008F77809361
:10092000A60080E0A4DF811130C08091A90080641E
:100930008093A90081E021DE811127C08091D70139
:1009400087FF6CC08091AA008F7C80618093AA0091
:10095000209709F04DC08091AA008F7C806280931F
:10096000AA008091A9008F7B8093A90082E07FDF9D
:1009700081110BC08091A600982F9B7F9093A600B9
:100980008F778093A60082E072DF9091A900906437
:100990009093A900F11005C090919E009E7F9093C6
:1009A0009E0091E09093A8001092A800DF91CF9153
:1009B0001F910F91FF9008958091AF00899301508E
:1009C00011098091F6009091F700892B19F001151B
:1009D000110591F78091A90080648093A90080910E
:1009E000A600982F9E7F9093A6008F778093A600F5
:1009F0000115110509F4AFCF8091A9008F7B809379
:100A0000A90081E034DF8111C0CF8091F600909180
:100A1000F700009709F0C8018C01D3CF2097B9F0F7
:100A20008091AA008F7C80628093AA008091A900A7
:100A30008F7B8093A90082E00115110509F517DF6E
:100A40008111A3CF8091A90080648093A900809137
:100A5000AA008F7C80618093AA008091A9008F7B7F
:100A60008093A90081E003DF81118FCF9091A600D0
:100A7000292F2E7F2093A6009F779093A60085CFE5
:100A8000F6DE811182CF2091F6003091F70080913F
:100A9000170190E02817390740F489918093AF003F
:100AA000015011090115110571F78091A600982FC9
:100AB0009B7F9093A6008F778093A600BCCFB3D185
:100AC000BCD182E08093D6018CE089BD89B582607B
:100AD00089BD09B400FEFDCF8091D800982F9F7783
:100AE0009093D80080688093D8008091D70081606F
:100AF0008093D7008091D8008F7D8093D80080911B
:100B0000E0008E7F8093E0008091D8008064809325
:100B1000D8008091DD0081608093DD008091D80055
:100B20008F7E8093D8008091DD0084608093DD000B
:100B30008091D7008F7E8093D7006F9A779A8091AB
:100B4000DE0081608093DE008091DE00846080930F
:100B5000DE00089580E480931701E7EDF0E08081E6
:100B60008F778083ACDFE8EDF0E080818061808367
:100B700081E08093DF0178940895A1DFE0EEF0E05A
:100B8000808181608083E8EDF0E080818F778083D1
:100B900019BC80818F7E80831092DF010895EF92CF
:100BA0000F931F938093A7008091A9008160809389
:100BB000A9001092AB002F70422B80E4689FB00117
:100BC0001124462B4093AA0080E00930110588F0DB
:100BD00080E10131110568F080E20132110548F031
:100BE00080E30134110528F080E40138110508F094
:100BF00080E58E2982608093AB008091A90080629D
:100C00008093A9008091AC00881F8827881F1F91BE
:100C10000F91EF9008951092F80080E090E041E08D
:100C200050E09A01082E01C0220F0A94EAF720939F
:100C3000A8001092A8008093A7001092AE00109216
:100C4000A6002091A6002F7E2093A6001092F5000A
:100C50002091AB002D7F2093AB002091A9002E7F27
:100C60002093A900019687309105D9F608955091F7
:100C7000A700577060E170E087FD02C060E270E09D
:100C800040E04093A7002091AA0020739091AC000F
:100C900021110AC097FF0EC09091AA0098279F705B
:100CA000911108C081E0089597FF04C030E0261735
:100CB000370791F34F5F473021F75093A70080E04B
:100CC000089595E68091AA008073803131F4809177
:100CD000A60080FF06C080E008958091A60082FDF6
:100CE000FACF8091A60081FD12C08091D60182309A
:100CF00079F080919F0085FFE5CF80919F008F7DE7
:100D000080939F0091509111DDCF83E0089581E0A1
:100D10000895DF92EF92FF920F931F93CF93DF938B
:100D2000D82FD92E8B017A012091AA002F7C206226
:100D30002093AA00C6DFC82F8823C1F08C2FDF9133
:100D4000CF911F910F91FF90EF90DF900895F701E1
:100D500009958130F1F4C4E0F1CFED2FFD2D8191A3
:100D60008093AF0001501109DE2FDF2E0115110510
:100D700029F38091A60085FDF0CF8091A600982FE1
:100D80009B7F9093A6008F778093A600E114F104D7
:100D9000F1F697DF882369F3C82FD0CFDF92EF9267
:100DA000FF920F931F93CF93DF93D82FD92E8B01F0
:100DB0007A012091AA002F7C20612093AA0081DF74
:100DC000C82F8823C1F08C2FDF91CF911F910F91F5
:100DD000FF90EF90DF900895F70109958130F1F4CD
:100DE000C4E0F1CFED2FFD2D8091AF008193015034
:100DF0001109DE2FDF2E0115110529F38091A600C0
:100E000085FDF0CF8091A600982F9E7F9093A6003D
:100E10008F778093A600E114F104F1F652DF882366
:100E200069F3C82FD0CFE8EDF0E080818C7F80831C
:100E30001092A0001092DE0008951092DA00109235
:100E40009F001092DF0008951F920F920FB60F922D
:100E500011240BB60F922F933F934F935F936F9391
:100E60007F938F939F93AF93BF93EF93FF93809163
:100E70009F0081FF15C08091A00081FF11C080916B
:100E80009F008D7F80939F0080919F008E7F809335
:100E90009F008091A0008D7F8093A000E7DA0FDE95
:100EA0008091DF0081FF15C08091DE0081FF11C0BD
:100EB0008091DF008D7F8093DF0077988091DD0047
:100EC00081608093DD0080E0D8DAD0DA82E0809320
:100ED000D6018091DF0080FF17C08091DE0080FF87
:100EE00013C08091DF008E7F8093DF008091DE0051
:100EF0008E7F8093DE00B5DA8091A00082608093BF
:100F0000A00083E08093D6018091DF0082FF0EC0B5
:100F10008091DE0082FF0AC08091DF008B7F80938A
:100F2000DF0060E082E0B9DAA1DAC9DDFF91EF917C
:100F3000BF91AF919F918F917F916F915F914F91F1
:100F40003F912F910F900BBE0F900FBE0F901F90EF
:100F500018951F93CF93DF93C7EAD0E018811770DD
:100F6000188242DB1883DF91CF911F910895CF92B1
:100F7000DF92EF92FF920F931F93CF93DF93CDB742
:100F8000DEB729970FB6F894DEBF0FBECDBF6B0159
:100F90008A01790190E89093D70196E09093D80167
:100FA0008150990B92609093DA018093D90110924D
:100FB000DC011092DB0189E090E09093DE018093E8
:100FC000DD011092A700CE01019674DC811117C0DB
:100FD0008B819C81F60191838083E816F90670F07D
:100FE0009093DE018093DD01C80164DC811107C0AC
:100FF000F8019181923019F086E001C085E02996D0
:101000000FB6F894DEBF0FBECDBFDF91CF911F9119
:101010000F91FF90EF90DF90CF900895AF92BF9225
:10102000CF92DF92EF92FF920F931F93CF93DF93B4
:10103000EC018B016A01E880F980E114F10411F4FC
:1010400082E01CC0F801A080B180F501208130E071
:10105000C501820F931FF80191838083A701421B72
:10106000530B59834883F6010995823021F381306F
:1010700029F4F801B182A082F982E882DF91CF9150
:101080001F910F91FF90EF90DF90CF90BF90AF90A6
:101090000895FC018181843069F48581813051F4A7
:1010A0008681833039F481E09781911101C080E01D
:1010B000880F089582E00895FC018181853041F414
:1010C00083818370823041F48281D1DD880F08955D
:1010D000843011F481E0089582E008955F926F9268
:1010E0007F928F929F92AF92BF92CF92DF92EF92B8
:1010F000FF920F931F93CF93DF9300D000D0CDB713
:10110000DEB76C017A8369835C834B83FC01349680
:1011100085E0DF011D928A95E9F7EB81FC81F18082
:10112000B2E0FB126AC04E01E3E08E0E911C49E46E
:1011300058E0B4018E010F5F1F4FC8016FDFB82E5A
:10114000A82C792C602E512E81112CC04CE558E032
:101150006A2D772D862D952D61DFF82E811150C0D7
:101160008B809C80D40112962C91129714960D912D
:101170001C9127FF2CC0F601E180EE0CEE0C40E143
:1011800062E080810CDDD40114968D919C91F60172
:10119000968385836894B0F8B3E0BB12D7CF81E023
:1011A000F60184838F2D0F900F900F900F90DF9199
:1011B000CF911F910F91FF90EF90DF90CF90BF9054
:1011C000AF909F908F907F906F905F900895D60121
:1011D0001396EC901397EE0CEE0C40E262E0129640
:1011E0008C91DDDCF40184819581D60118969C9365
:1011F0008E9317976894B1F8CFCFFF24F394D2CF92
:1012000083E0F82ECFCFFC018091D6018C3099F489
:1012100082818093A7008091F6009091F700892B3E
:1012200061F08091A600982F9B7F9093A6008F7706
:101230008093A60046CD82E0089580E00895FC01E9
:10124000CB012091D6012C3001F524812223E9F035
:1012500022812093A7002091A60025FF14C040E022
:1012600050E064E070E055DD811110C08091A6006F
:1012700085FD09C08091A600982F9B7F9093A600C2
:101280008F778093A60080E0089581E00895FC01A7
:10129000CB012091D6012C30E1F424812223C9F026
:1012A00020812093A7002091A60025FF14C040E0D4
:1012B00050E064E070E072DD8091A60085FD09C019
:1012C0008091A600982F9E7F9093A6008F778093A1
:1012D000A60081E0089580E00895EE0FFF1F00242E
:1012E000001C0BBE0790F691E02D09940F931F93FD
:1012F000CF93DF93CDB7DEB7AE01495F5F4FDA0121
:101300006D917D91AD0100EE11E0F8018281938134
:10131000DC0113962C911397286013962C9366D0BA
:10132000D8011296ED91FC912381277F2383DF91D1
:10133000CF911F910F9108950F931F93CF93DF9338
:10134000E091E201F091E301238110E000E021FD52
:101350000EC00FEF1FEFC801DF91CF911F910F91CA
:1013600008950995892B11F00FEF1FEFCE01EC01C5
:1013700089916091E2017091E301DB011896ED9192
:10138000FC918111EECF8AE00995892B21F3E1CF01
:101390000F931F93CF93DF938C01E091E201F091C3
:1013A000E3018381D0E0C0E081FD0FC0CFEFDFEF2C
:1013B000CE01DF91CF911F910F9108950995892B4F
:1013C00011F0CFEFDFEF0F5F1F4FF80184916091B5
:1013D000E2017091E301DB011896ED91FC9181111E
:1013E000EDCF8AE00995892B19F3E0CF2F923F9238
:1013F0004F925F926F927F928F929F92AF92BF9225
:10140000CF92DF92EF92FF920F931F93CF93DF93D0
:10141000CDB7DEB72B970FB6F894DEBF0FBECDBFAA
:101420007C013B018A01FC0117821682838181FFC6
:10143000C1C19AE0292ECE0101965C01F70193818A
:10144000F30193FD859193FF81913F01882309F476
:101450003CC1853239F493FD859193FF81913F0121
:10146000853221F4B70190E0BED1E8CF912C412C18
:10147000512CFFE1F51538F08B3209F188F48032F8
:1014800001F1833221F157FC3AC020ED280F2A30B8
:1014900040F556FE1FC0929C200D1124922E06C0CE
:1014A0008D3291F0803379F7689450F8F30193FD11
:1014B000859193FF81913F018111DBCF20C068941A
:1014C00051F8689452F8F2CF689453F8EFCF6894CB
:1014D00054F8ECCF429C200D1124422E689455F80C
:1014E000E5CF8E3229F456FCF0C0689456F8DECF72
:1014F0008C3619F4689457F8D9CF8836B9F2982FFA
:101500009F7D95549330B8F0833691F18337B1F1D4
:10151000833509F056C0F801C190D1908F01692D33
:1015200070E056FC02C06FEF7FEFC60146D14C0160
:10153000689457F80AC00C5F1F4F2FE32983882453
:101540008394912C6501E89457F853FC04C0481427
:10155000190409F008F5342C8114910419F533208D
:1015600009F46CCFB70180E290E03DD13A94F7CF17
:10157000F801808189830E5F1F4FE1CFF801C19090
:10158000D1908F01692D70E056FC02C06FEF7FEFA4
:10159000C6011ED14C01D7CFB70180E290E023D124
:1015A0004A94D5CFF60157FC859157FE81916F0182
:1015B000B70190E018D131103A94F1E08F1A9108F8
:1015C000CBCF843619F0893609F070C0F80157FE88
:1015D00066C061917191819191918F01252D2F7636
:1015E000D22E97FF09C090958095709561957F4F99
:1015F0008F4F9F4F6894D7F82AE030E0A50123D1A0
:10160000C82ECA188C2C5D2CD6FE0CC0E89450F85D
:10161000C91440F4D4FE05C0D2FC03C0FD2DFE7EEB
:101620005F2E892C54FEA0C0FE01EC0DF11D8081BF
:10163000803309F092C0252D297E522E852D887089
:10164000382E53FC9FC050FE99C09C2C841418F473
:101650004C0C942C981854FE9BC0B70180E390E08A
:10166000C2D052FE08C088E790E051FE02C088E573
:1016700090E0B701B8D0C91408F496C0CA94D12C30
:101680009FEFC91AD90ACA0CDB1CF60182916F01BF
:10169000B70190E0A8D0AC14BD04B9F760CF619158
:1016A0007191072E000C880B990B97CFD52CE894DD
:1016B000D4F82AE030E08537E1F1952D997FD92ED5
:1016C0008F36A9F1F0F4883551F1F70186819781C1
:1016D0002B960FB6F894DEBF0FBECDBFDF91CF9132
:1016E0001F910F91FF90EF90DF90CF90BF90AF9040
:1016F0009F908F907F906F905F904F903F902F9032
:101700000895803749F0883701F7D4FE02C0689405
:10171000D2F820E130E00DC06894D4F8F6CF54FE42
:1017200003C0E92FE660DE2E20E132E002C028E0AF
:1017300030E0F801D7FE0CC06191719181919191D7
:101740008F01A50180D0C82ECA18E894D7F85ACFC7
:101750006191719190E080E0F3CF52FC02C08394DC
:101760006DCF839483946ACF852D867809F466CFF4
:10177000F6CFB70180E290E036D083948414C8F3AA
:10178000312C69CF342C3818841408F464CFF8CF86
:10179000852D867809F46FCF8BE251FE80E257FCED
:1017A0008DE2B70190E066CFB70180E390E01BD0F7
:1017B0009A9461CF8FEF9FEF8BCFFC010590615022
:1017C00070400110D8F7809590958E0F9F1F089557
:1017D000FC016150704001900110D8F78095909500
:1017E0008E0F9F1F08950F931F93CF93DF93182F92
:1017F000092FEB018B8181FD09C01FEF0FEF812FB6
:10180000902FDF91CF911F910F91089582FF14C007
:101810002E813F818C819D81281739073CF4E88116
:10182000F981CF0101969983888310838E819F81EE
:1018300001969F838E83E3CFE885F985812F0995F3
:10184000892BA1F3DACFFA01AA27283051F12031F0
:1018500081F1E8946F936E7F6E5F7F4F8F4F9F4F44
:10186000AF4FB1E03ED0B4E03CD0670F781F891F86
:101870009A1FA11D680F791F8A1F911DA11D6A0F54
:10188000711D811D911DA11D20D009F468943F9107
:101890002AE0269F11243019305D3193DEF6CF0106
:1018A0000895462F4770405D4193B3E00FD0C9F7CC
:1018B000F6CF462F4F70405D4A3318F0495D31FD39
:1018C0004052419302D0A9F7EACFB4E0A69597958C
:1018D000879577956795BA95C9F700976105710562
:1018E00008959B01AC010A2E0694579547953795AC
:1018F0002795BA95C9F7620F731F841F951FA01D06
:101900000895F894FFCF0C0340034D03570382035F
:0A191000AD03B903C703E5031B0490
:10191A0001000200000000000000000003000000B7
:10192A000064026D02000040800600010000080009
:10193A0000050100000000008006000100001200FE
:10194A004F6E004F6666004572726F722052657460
:10195A0072696576696E6720436F6E66696775722C
:10196A006174696F6E2044657363726970746F7213
:10197A002E0D00417474616368656420446576695C
:10198A006365204E6F7420612056616C6964204D36
:10199A0049444920436C61737320446576696365E1
:1019AA002E0D004572726F722053657474696E67EA
:1019BA002044657669636520436F6E666967757250
:1019CA006174696F6E2E0D004D4944492044657655
:1019DA0069636520456E756D6572617465642E0D67
:0219EA000000FB
:00000001FF
